:100000000EC028C027C026C025C024C023C022C0DF
:1000100021C020C082C11EC01DC01CC01BC0112435
:100020001FBECFE5D2E0DEBFCDBF10E0A0E6B0E05E
:10003000E6E6F7E002C005900D92A636B107D9F7C3
:1000400020E0A6E6B0E001C01D92A837B207E1F7B4
:1000500089D187C3D5CF0F931F93CF93DF93CDB7AC
:10006000DEB729970FB6F894DEBF0FBECDBF8983E8
:100070007A836B835C834D833E832F831887098744
:10008000FE013196AE01465F5F4F30E020E090E028
:1000900080E06191860F911D8F3F910510F08F5F79
:1000A0009109280F391F2F3F310510F02F5F3109BB
:1000B000E417F50771F7322F2227822B932B29960D
:1000C0000FB6F894DEBF0FBECDBFDF91CF911F9169
:1000D0000F910895CF93DF931F92CDB7DEB7809134
:1000E00060008150823018F081E0809360009FB7FB
:1000F000F89488B3837F88BB19828981843120F486
:1001000089818F5F8983F9CF80916000813031F4DC
:10011000C39A9FBF0F90DF91CF910895C29AF9CFF4
:100120002FB7F89460916600709167008091680025
:10013000909169002FBF0895EF92FF920F931F9344
:10014000CF93DF9380916C0090916D00A0916E0031
:10015000B0916F000196A11DB11D0097A105B105D9
:1001600009F464C080936C0090936D00A0936E00BE
:10017000B0936F0080916A0090916B00019664E2E9
:1001800070E0DBD290936B0080936A006EE070E0C9
:10019000C3D2EC0100916C0010916D0020916E00B3
:1001A00030916F0040916100509162006091630056
:1001B00070916400809160004EDF7C0160E0CE01B0
:1001C00085D28E010F5F1F4F60E0C8017FD2609122
:1001D0006000CE0103967AD2409161005091620096
:1001E0006091630070916400CE0104967DD24091CD
:1001F0006C0050916D0060916E0070916F00CE01A7
:10020000089672D2B701CE010C9673D261E0CE018E
:1002100002965CD26AE5C80159D265EACE01DF9147
:10022000CF911F910F91FF90EF9050C281E090E02D
:10023000A0E0B0E097CF4F925F926F927F928F9243
:100240009F92AF92BF92CF92DF92EF92FF920F9365
:100250001F93CF93DF937B018A0169016EE070E009
:100260005BD2EC0121D2853A11F020E044C0CE01EE
:1002700001961AD28A35C9F7CE01029615D281307D
:10028000A1F7CE01039610D2F7018083CE01049628
:1002900013D2F8016083718382839383CE01089621
:1002A0000BD24B015C01F60180829182A282B38263
:1002B000F701F0808FEF8F0D8230B8F6F8014080A3
:1002C000518062807380F1E04F16FEE25F06F3E931
:1002D0006F06F2E07F0648F6CE010C96F2D1EC01F3
:1002E00095018401B301A2018F2DB5DE21E08C17A9
:1002F0009D0709F0BACF822FDF91CF911F910F9107
:10030000FF90EF90DF90CF90BF90AF909F908F9035
:100310007F906F905F904F9008951F920F920FB64D
:100320000F9211248F939F93AF93BF938091660098
:1003300090916700A0916800B09169000196A11D9D
:10034000B11D8093660090936700A0936800B093FE
:100350006900BF91AF919F918F910F900FBE0F9049
:100360001F901895CF93DF93CDB7DEB729970FB6BF
:10037000F894DEBF0FBECDBF0FB6F894A89581B537
:10038000886181BD11BC0FBE87B38C6087BB88B309
:10039000837F88BB82E08ABD83E083BF8CE789BD11
:1003A00089B7806189BF789488E19DE00FB6F894A1
:1003B000A89581BD0FBE91BDB3DE4B015C01B0DEDF
:1003C000681979098A099B0960347F418105910583
:1003D00010F4A895F4CFD12C812C912C540110E06D
:1003E00000E09E012F5F3F4FAE014B5F5F4FBE01AC
:1003F000675F7F4FC8011FDF882399F089819A8149
:10040000AB81BC81DD2009F4D8C0AC01BD01481925
:1004100059096A097B0914161506160617060CF405
:10042000D2C00F5F1F4F04321105D9F6DD2009F449
:10043000CEC09E012F5F3F4FAE014B5F5F4FBE01AD
:10044000675F7F4FC701F7DE882309F4C0C0898545
:10045000809360008D819E81AF81B8850097A10552
:10046000B10521F480E09EE2A3E9B2E0809361004F
:1004700090936200A0936300B093640089819A8195
:10048000AB81BC8180936C0090936D00A0936E0053
:10049000B0936F00E0926A00F0926B00809161006F
:1004A00090916200A0916300B091640081309E42FF
:1004B000A349B24060F080E09EE2A3E9B2E08093FD
:1004C000610090936200A0936300B093640002DE29
:1004D00027DE60937400709375008093760090938C
:1004E00077001EDE6093700070937100809372003D
:1004F0009093730088E19FE00FB6F894A89581BDB2
:100500000FBE91BD812C8EE2982E83E9A82E82E049
:10051000B82EA89505DE6B017C018091700090914A
:100520007100A0917200B0917300B701A601481B41
:10053000590B6A0B7B0BC0927000D0927100E09255
:100540007200F09273008091610090916200A0911E
:100550006300B0916400481759076A077B0708F0E9
:1005600053C0841B950BA60BB70B8093610090932F
:100570006200A0936300B093640080916100909149
:100580006200A0916300B0916400892B8A2B8B2BB1
:1005900009F068C0D1DD88B3837F88BBC1DD6B0102
:1005A0007C01BEDD6C197D098E099F096838734195
:1005B0008105910590F5A895F4CF78014C015D0176
:1005C000DD24D3942ECF78014C015D012ACF81E048
:1005D0008093600080E09EE2A3E9B2E08093610036
:1005E00090936200A0936300B093640010926C003B
:1005F00010926D0010926E0010926F0010926B00BE
:1006000010926A0099DD4ACF109261001092620048
:100610001092630010926400B0CF8091600081302E
:1006200009F040C082E08093600080926100909267
:100630006200A0926300B09264004CDD7DDD70DD4D
:100640006B017C01C0927000D0927100E092720048
:10065000F0927300C0927400D0927500E092760020
:10066000F09277008091740090917500A0917600CF
:10067000B0917700A7019601281B390B4A0B5B0B41
:10068000DA01C901803E9349A440B10508F441CF85
:1006900053DDC0927400D0927500E0927600F09223
:1006A000770037CF81E0BFCFE199FECF9FBB8EBBF4
:1006B000E09A99278DB30895A6E1B0E044E050E0B8
:1006C0001DC0A8E1B0E042E050E018C0262FE1993B
:1006D000FECF1CBA9FBB8EBB2DBB0FB6F894E29A1F
:1006E000E19A0FBE01960895242FF1DF252FEFDF49
:1006F00000C0ECDF272FEBCFDC01CB01FC01E1993F
:10070000FECF06C0FFBBEEBBE09A31960DB20D9254
:1007100041505040B8F708950024552704C0080EF2
:10072000591F880F991F009729F076956795B8F3A0
:100730007105B9F7802D952F0895AA1BBB1B51E1B8
:1007400007C0AA1FBB1FA617B70710F0A61BB70B41
:10075000881F991F5A95A9F780959095BC01CD01E6
:060760000895F894FFCF9C
:0607660001002E930200C9
:00000001FF
